:100000000C94980D0C94C00D0C94C00D0C94C00D64
:100010000C94C00D0C94C00D0C94C00D0C94C00D2C
:100020000C94C00D0C94C00D0C94171A0C94861AE5
:100030000C94C00D0C94C00D0C94C00D0C94C00D0C
:100040000C94C00D0C94C00D0C94C00D0C94C00DFC
:100050000C94C00D0C94C00D0C94C00D0C94B81CE5
:100060000C94C00D0C94C00D0C94C00D0C94C00DDC
:100070000C94C00D0C94C00D0C94C00D0C94C00DCC
:100080000C94021D0C94C00D0C94C00D0C94C00D6A
:100090000C94C00D0C94C00D0C94C00D0C94C00DAC
:1000A0000C94C00D0C94C00D0C94C00D152FD87E6F
:1000B0007B2A255DE79C4E6F95B4A3DA295D2B95CD
:1000C0005255AFCAEE73D88D6EAEDA4574A97695E7
:1000D0009C4D493BF211B452CAA6D3E9743ABAF026
:1000E000B724964E2A9DDE6E95745C15F6A24BC71A
:1000F000964E87460E2F30B43D9592AE734EA7B7FD
:100100004ADA71B4744EAECB57A9AA94B5EB1C6B06
:100110007473D539A73E55BB52CA8E4404AD64688A
:100120005C124B65476074E9D8D2E9D0042817B84F
:10013000D2C9AA5455AA2A5595AA64D557A5B2AAD8
:100140005DBAE64BA7A492E9743A9DDE6EB7DBADCB
:10015000924A9552A55429554A9552E5D2E974F42C
:1001600095AC6CE73A97AB5DADFAAA5BDD4A3A75A0
:100170002B7C6EB7AB52AA949295AC643AB456B24B
:1001800092DB743ABDDD6ED3E9743A9D4E2BA9A47F
:100190005D49259594727BC974B80518173074E9C8
:1001A000D46D57E79CAB9D73DBED76ABA4925249BF
:1001B00085B364E752BDEA5521B4735DD7755DD749
:1001C000E99454CEE1512AE79CDBAED3F16F934A18
:1001D0002AA94A392E2217A8D3E94B56B29295ACD8
:1001E000747AFB769B4EA7D3E9ED76BB5552492531
:1001F0009574CE39B95DA723DD6667534C55AA4A7D
:1002000096AA4A291D3AD3E9542A952A773927957F
:100210005CA7D3E9F09C4E3B57954A3BA74AE6C3FF
:10022000392017A8B6B1CDA6D894EB9CAB743A9DF3
:100230004EA7D3DBAD924A2AA9A4734ED9ED3ABD9D
:100240004E874BE7DE6E67DB6ED74925955476E720
:100250009C73CEC1A51727B0BA734A6ED3D1A773CA
:100260004896954EAFD3E9AD73769BAE6C65436E01
:100270005A49A9F8B752C1444AE99CD339E73A052B
:10028000D9011D27D016593AABA4734E492595DCE8
:100290008EA85E4925F3E94A8725E7DCFCE9F47E70
:1002A000A6ACC250161A4A6795734E6EB39145BEFE
:1002B00084849297AB645A49259DB33BA7732E372C
:1002C000840A231FB0B45D2AA9ECAA5FDDCED974DD
:1002D0003A9D8F2CBB737625ED4A2AA9A4934A2A0E
:1002E000BB8D2859C9C8A5B2EBB0554965D3316655
:1002F0009583AEB24BA76CD44B27679BED65F0544A
:10030000BA92DBED36B44517B4041F174895734A0B
:100310002AB9DD2AA964ED7AADB0B45D3BA9AC92EF
:1003200052D975F8DB2A69674EA7ED7687A71DF7C6
:100330005649E7A4924EBA4FE6C3D24A6EB74BE590
:100340005CB469E7D2CE4534CE01151768B34B25AE
:10035000955DF5EADBD5369D0E5DE91CF556492520
:1003600095740E4D4B37978E2E8F4725955452C955
:10037000B1155DF41817B0B4544A6E43533AED9C6E
:100380005D874CA5747ABB5D6FB75BB94D6F957493
:100390004E3AE99C9C2859C9A8B7DBED76BBDD6EC7
:1003A000C73A2B0FE8B24B2595544E39A79C734A98
:1003B0002A9D4EA7D3E9747AABA454A595944A2AF2
:1003C000ABEC76ABA47352D9ED76BB9D2EBAF8B7E1
:1003D0004A2AA9E8D3E9745249259554524925D3AC
:1003E00011A6B7BBDAD5CE39E79C73CE39E76A5789
:1003F000BBCE752EA264C755F9B8002C0FB89C92DD
:100400004A2AA9634AA7D376BB5DDDEACE75EA53D3
:100410006F7784BD55D2A6D3E9743A9D4EA7934A0F
:100420005652B95B49C536DBD4E9743ABDDD2AA919
:10043000A4924A2AA9A4924A2AA9E47C4965B74B06
:100440002595DC6EB7DBED763B5B74A10F2717A813
:1004500094B3DBEDD84AA7954E49F529A94AA9D20C
:10046000A94FA73E9D4E070FA5D35B259554D239C2
:1004700025B7A9ECD229A9A473CE6DB7DBED76FB25
:10048000D6EE9C554A2AA9A4924A2AB2D9864C0192
:100490001F17B8DC76BB754EC96D3A9D4EA795EB1C
:1004A0009454DF5239E79C535CB38DCD9C53524931
:1004B00025955472BBDD6E97CA39E73EA5A42AE59F
:1004C000A492CE39A9A492CA6EA78B2EFE743A9D2F
:1004D0004EA7D3E9E8A38B369D4EA7D3E9E8A28BBC
:1004E0000E200FA8763ABDDD6E95B4979FCC39A744
:1004F000A4B24A2AABA4B24A2AE99C5452D9ED3A92
:100500001DDED25BE7B6CE6D436F3A9DDE6EB74A15
:100510005E2E5DF9B8001F0FA89493D3A7D36E2A5F
:100520006527EB9CDC6ED7EBF45649259D934A87F3
:10053000B7F45649D53B677736A4A6B74A3AE79C45
:1005400073AA943A35513E260917BC9DB19295ACD9
:10055000A8F895D4F16FF1E45CDAB974CD05091708
:10056000BC9DB19295ACA8F895D4F16FF1E45CDA3A
:10057000B974CD051517489592B3A66B2577CA397E
:10058000A9F4AA5DB45BE7EC7C52210A7DE8629C89
:100590004C9129A42A32C536191E17C8D5ACE9DA00
:1005A00039A59C7252E95CAFE43A9FDE2AE99C5D72
:1005B00087471D9A1AAB6925A5B2EBFC5649E7A4FB
:1005C000B2314EA6C814E4349B629B0C2217D0941F
:1005D000544A6EA34DD74AEE947352E955AF6C7CE2
:1005E000E9AD9252D97548DCC990B4544A86D6F424
:1005F0005649E7A4B2EBF55649E7A4B2314EA6C876
:1006000014E4A5C814DB641017889DC2D776ABA488
:10061000543AF6A41B69D9A572CE3925E7CD663BBD
:10062000A7E4F672A1131C17F0E8C6503A9D4EA736
:10063000D369259D93CAAE43533ABB545239A7643C
:1006400058CA2E95734A6ED3DBAD73FC69DECE2992
:10065000F929E79454A5B6DB74E8DD3AB7752EA600
:10066000A900131708B7CE39E73A257552E974F493
:100670005B1DDAD2D9ED5295C250FC5251E72AF9EE
:1006800029E79454A5B6E974B45BA9B6524D341564
:10069000201FD0EB46553A9D4EA7D34A4AA5435E4C
:1006A000252B5939E79C73CE29A96458CA2E957316
:1006B0004AA6B75B25A5B2F3A5B7CED989D3C15A4F
:1006C000E9AD73DB5B6D7B2811101788E57CE9745D
:1006D0003A9D4E4B654757232D9DDD2E9593F3E6AE
:1006E0002AF929E79454A5B6A111181770E9C6DFB5
:1006F0005686B34A56B272524925955438CB39FEC4
:10070000B492FCE9D0BE956A2BD5445302201FD089
:10071000EBC6D15291A7D34A4AA5435E252B59393E
:10072000E79C73CE29A96458CA2E95734AA6B75B75
:1007300025A5B2F3A5B7CED989D3C15AE9AD73DBEC
:100740005B6D7B28111C17F0E846D15291A7D34A64
:100750003A27955D87A67476A9A4724EC9B0945DB8
:100760002AE794DCA6B75BE7F8D3BC9D53F253CEDF
:1007700029A94A6DB7E9D0BB756EEB5C4C530114E7
:100780000FE8729553CEE5D3E9EC524DB8239B6D3B
:10079000B9936329DAD0185DF41017F8D7BA76CE7A
:1007A0006DD35BE76A17D10E494A2A27E7CEAE23FD
:1007B0005E3AC53CD96C63499129B6C9000917BC9A
:1007C0009276A2743A461C912932A2F10B1E17B000
:1007D000B873B3A6D3E9ECBDEAA5725259E79C53AE
:1007E000D239A97468CA2E9592DBC897CA3925B741
:1007F000A16F2B157FDA39BECE29793925B7DBA059
:1008000023E7D2CE4534172317B0BB73D1A7D3D972
:10081000A56A752B27D3E9AD92CE4965475F76A9C6
:100820009C5372BBCDA6B3DBA5724EC96DE84B6F6E
:100830009DB3F3A59594334FA6645A41628A4CB197
:100840004D061D27D0974E67B7DBED5249E59C73E7
:10085000CE29A9A4724A2AB954D255AA2A55157389
:10086000763BD7AA6D7675ABA592CA392595DC6E15
:10087000D3A1196770189AB61058EDF28ACBC15DF2
:100880001817D85632FADA39B75C3AA557ADE24BA9
:100890006F9DB3E3CB39BB0E41CAD9F19456522AAE
:1008A000DEAD7318DBA59D4B3B173A9D4B3B17D133
:1008B0005C1F1FC89454CE396757BDD2B95EDD6A3C
:1008C000BBDE6E9554D239E7A492CA6ED7E9F02701
:1008D00015BE74784BA7D3DBAD924A3AE79C73CA36
:1008E0007636A26CD44ACAF56C934169D145173467
:1008F000061117489592D1A56BE776CAE9AD73B595
:100900008B8ED7393BBF92527925F184A8C9661BDB
:100910004B8A4CB14D061017BC553A5D3BE7B6E922
:10092000AD733517DE94B4A32B9D754E5EB6B261E0
:10093000683245A690091C1FD8B6CB74AE5C6757C9
:10094000FDDBED76BB545249259573CE39E79C7398
:10095000CE39E75C252B59913A87271DFC25155D7B
:100960007410D76CB30D6B011117B8B6CE39E7EC24
:10097000AA57B2B6DB53D2C94A3AA9A452D4697C69
:10098000F1873E7749A5934AE770091D17C8D5AC92
:10099000E9DA39B7DC2A295DEDA24D6F9574CEAE48
:1009A00043A01C4D3917BAD25BE7A4B2EB78D35BF6
:1009B000E7E4CC9329320509E5B395CD67F39101BE
:1009C0002217D096DD3925674DD7CEB9E55649E9CE
:1009D0006A17ED5649E7EC3AEC6595732329BB5449
:1009E000CE6D435F7AEB9C54761DEFD639A96C8CA3
:1009F00093293205792932C53619152FA44A87BEA5
:100A0000F4562A3CA6D3ED42262E9554D239A7A4FB
:100A100092CA8E2F25A5C235DE926EBBDD6EB7DB86
:100A2000EDF8520A575B25A5934A4A259554CE39CD
:100A30005C29A9A4924A2AA9E476BB1D7B0E2F88C3
:100A40009D435F7A2B15A5533A943A259574CE2988
:100A500094E5A4C219CA726EAC298529E7A4D2E133
:100A60004949259554524925B7DBEDEC2817949256
:100A70004AE9743A9D4EA7A3DF6EEDDBB1974EA70E
:100A8000D3E9ED76BBDD6EB74A49259554645249EA
:100A9000A5D3C159D9EDCE39E7DC769B0E6DCE39A1
:100AA000E79C734A6E955452492595DC6EB7DBADD1
:100AB00073CEE9743AE7EC76BDDD2A25154A0118B4
:100AC0001788ED36BCA5D3E9747ABB75CE399D8EF7
:100AD00052293B65188F5F4925F1944EDBED76A9CD
:100AE000A452524925954C4BE79454CED9ED76A9A2
:100AF000002217189554D26EB74A2AA9A49252A57B
:100B0000435F3A9D4E6FB7DBAD924A3AE79C545231
:100B100029E79C92CA39A96430D576ABA45276BB3A
:100B2000DD8ED7ED562ABBDD6EB7DBA52A85A27414
:100B30003A9D4EA7D3E934201776CE39A79C734E41
:100B40002AA9EC7674A6D3DBED5649259574CE39E7
:100B5000A9A4B2DB51271567F4B1AFD3E9A4924A37
:100B60002A49994EA7D3A12F9D8E2E9D0E7A02174A
:100B700027B0B9734A6E435FEE302A435D5A49E9A4
:100B80009C5476E9142ED34A4A85AFAD5498570A3F
:100B900075901C1D27D0955D2AE79C53524925B7B7
:100BA000DB6DC8DB3925A5924A3A47EA940D06CA9F
:100BB000A23B9D5E2A27B723728973E5A4924A2A35
:100BC000E79C934AA7439072F028231F68B34B25F4
:100BD0009573CE29B94DA7C35E769D4EA7734E2A55
:100BE000A9A492CE39A9A4924A2AC525955D87E980
:100BF000AC72D05376E9940D5761CC0D2FA59D733F
:100C0000CE392595DC469B4E6FB7DBEDB0111F1733
:100C1000C894734A6EB7E9743AF4A6B74A4A65D7DE
:100C2000E16BABA41D75236EE7D25B259D93CA6E65
:100C3000F7E9AD725291AE6C3A9DCE2E9573DBAD55
:100C4000545249259554D23954460F1517E8B24BE2
:100C5000E59C734A6EB7E9704BB555D239E79C43B2
:100C60005B761D9EF0E69C73CE39E79C738A7CBB55
:100C7000DD6E67051817D8974AC96DE84B3B67D7F3
:100C8000214F29843A2595744E2ABBDE2AABA492C3
:100C90004A2AC5A4A4924A2AA9A4924A2AA9A4929B
:100CA0000AD92B0F7476A99C73CE3925B7E9A0A376
:100CB000743ABD55D239A9A4924A2AA9A4B2DBED4F
:100CC00076BEAD92CE39E79C924A2AE99C73CE3922
:100CD000E79C73CE39E79C73CE39E79C7352492564
:100CE0009554524925955452492595545249E59CAD
:100CF0005452492595944A012C0F9C5372BBDD6ECA
:100D0000B7E9743A9D4EA7D3E9743A9D4EA7D3E94B
:100D1000D09D4E2AE99C73CE39C794DE6EB75B2511
:100D20009574CE39E79C73CE39E79C73CE39E79C36
:100D300073CE39E79C73CE39259554524925955485
:100D4000524925B7DBED580327174F0D7339E79C40
:100D500054524965B7DBED76BBDD6EB7B3A6B75B22
:100D6000259D73CE39A99C93CA6ED7E9743A9D4EDE
:100D7000A7D3E9743A9D4EA7934A2AA9A4924A2A76
:100D8000E79C73CEC1A11F179CDBA6D3DB6D3A1D78
:100D9000D6D2D9ED76BB54CE29A9A4920A79391BB3
:100DA00052B3DBED76BB555249259D73CE39A9A4CC
:100DB000B2DBED763B5F7ABBDD6EB7DBED769B4E4B
:100DC0006FB7DBED36BDDD6EB7DBED36BDDD6EB783
:100DD000200FD40E87692595DD6ED7E97C3ABDDDFD
:100DE0002AE99C73524965B7EB74FCE9AD5452494A
:100DF000259554DBD0984E6FB75B2595744E2AA984
:100E0000A4924A4AA5001F0F947272242E95545240
:100E1000D9753A1D6F7ABB55D239A974784A6F9546
:100E2000D4E9743A9DB32131BD55D239A9A4B2EBAE
:100E3000747AEB9C54010917EDF8E3535287AF2DF8
:100E4000AF5452492595545249050917EDF8E3531B
:100E50005287AF2DAF545249259554524905151765
:100E6000C89492232DBBDD8EAFAD73562BC4A10B5E
:100E70007D39E79C73CE39E79CC3A173CE39E79CDB
:100E800073CE39071E1748D5C8CB6EB7EB74BCE9D3
:100E9000AD92CED97578435F632F9D56522ABB8E93
:100EA00077ABA47352D972CE39E79C73CE3907174A
:100EB00029A9A473CE39E79C732217E8934AC96D18
:100EC00058CB6EB7EB74FCE9AD9252D97548DBC9CB
:100ED00090B6544A86C6F45649E7A4B2EBF8D25B02
:100EE000259D93CA9673CE39E79C73CE39B8CA391B
:100EF000E79C73CE39E79C031017089DC25F7AAB5D
:100F0000A4543AB69D1B89D9A592CA3925D7CA39A6
:100F10002795545249259554A1111C17F0E7C67026
:100F20005A49E7A4B2EB68B3DBA572CE3925C35AA0
:100F300076A99C5372ABA473F84A7BA9A4B2DBEDEB
:100F400076BB5DC9ED36742A299554524965B7CEF2
:100F50000D1317BC9252D9F1BBD5A129ABA472CE07
:100F6000D9702A15935252D9ED76BBDDBEDD6ED312
:100F70005BBBDD6EB75BE706201FD08AE8B49252F8
:100F8000E970E59C73CE3925955452C96D58CB2E26
:100F900095734A2AA9A45476FEF4D639BB57524910
:100FA00025954CA7D3E9743A9D4E87D6F4562AA9C5
:100FB000EC76BBBD1C4C08101708E5F894CA4EDF50
:100FC000C84C6797CAC9B55252D9ED76BBDDBE0D84
:100FD0007D181770E8C6AB0C45524925B7DBED7696
:100FE0006CA795E4DB6EB7DB743A9D4EA7D3E9742A
:100FF0003A9D56D26EB7DBEDD63926201FD08AE84F
:10100000B49252E970E59C73CE3925955452C96D5E
:1010100058CB2E95734A2AA9A45476FEF4D639BB30
:1010200057524925954CA7D3E9743A9D4E87D6F47B
:10103000562AA9EC76BBBD1C4C081C17F0E7C670FD
:101040005A49E7A4B2EB68B3DBA572CE3925C35A7F
:1010500076A99C5372ABA473F84AFB524A2ABBDDB3
:101060006EB7DB95DC6E43A7925249259554F67214
:10107000CE0D140FECCE2939B2B24B2515D2927297
:101080009B4E6FB7DBED762CA5D3DBED763B2B10BB
:101090001778B798DD713AE79C1C57216AE91491DB
:1010A00073CE39A7A4924A2A52E79C73CE39E79CA3
:1010B000730E091795B4E38E135F52F1A6D3E9744A
:1010C0003A1D1D1E17B0B77323319D0E4F4A3A27A4
:1010D000958E36BB544A6E43D65239A7E436746DAA
:1010E000A5C257DAC994924A2AA9A45252C96DE8F6
:1010F000974A2AA9A4924A3AA7002317B0BA736163
:10110000313CA5B74A3A27951D5DD9A5724EC96DE8
:101110003AF67476A99C53721B9AD2E9AD7376FEA7
:10112000B4927222E79C73CE39E79C732E1D34E58E
:101130009C73CE39E79C73CE011D27B0B6DD6E9748
:101140004A2AA9A472CE3925955472BBDDA6634BF9
:1011500067B7DBAD5F2AA9A452B8CA6E97CA39E750
:10116000945472BB4D874E1CC25978CB4258524999
:10117000259554524925A12C1817EC4A86C5EC3AFE
:10118000FEF4D6393BBF73761DC294B3F3A6959493
:101190000A4F5BE710E49454524925955452853E1A
:1011A000A9A4924A2AA9A4730A1F1F9C73CE3925A9
:1011B00095DC8EB5747ABB555249E79C934A2ABB9D
:1011C0005DA7C39354F8D3F1A5D3E9F476BB555288
:1011D00049E79C934A2AA9EC5659259D738A4949A7
:1011E00019DAA0B0ED76BBDD6E87BD001117C8948B
:1011F00092A1DB3B67475858E475CE39E7945452C7
:101200004925D369E79C73CE39E79C730E1017ED1F
:10121000F8C593927634A69555522A1BA173CE3900
:10122000E79C73CE395C450B1C1FEC5249E5DC365C
:10123000F6743A9DCE6EB7DBA5924A2AA9A4924ACB
:101240002AA99C73CE39E79CC39B0EBAB2E30BA2CA
:1012500052524925955452490559011117DC522A19
:10126000A9A4924A6E435B3A9D558A2A8D3F9FDE20
:101270006EC7960B6D38041D1748D5D84F6F9574FF
:10128000CEAE43981C6D39176D3ABD754E2ABB0E14
:101290004FE9AD737222E79C73CE39E79C73384FE8
:1012A0006F9D73CE39E79C7352392217D095DD3983
:1012B00025C7FE5649E7EC3A6C659573232DBB5460
:1012C000CE6DD3D1A7D35BE7A4B2EBF0B4754E2AB1
:1012D0005BCE39E79C73CE39E75CD053DA39E79CB3
:1012E00073CE39E79C03132730B93D9592AE734E08
:1012F000A7B74ADA71B9744EAECB57A9AA94B5EB29
:101300001CFE6ABBABADEA9C539FAA5DEDA4B26321
:1013100048AEE3565239E79C73CE29A9A492DB70FC
:10132000D5CEB9DAD54E3AA974A805132710E81C12
:10133000FAD25BA950E7940EA5184AA7A4924A2AAC
:10134000E439271521F2B64B2595545239E79C73A1
:101350004ACEACD2E9743A9DDD2A2915460105082A
:101360007F7F3E1C087A7A6A7A7A5E7AB27A7A7AD3
:101370007A7A7A5E7A7A7A7A7A7A7A7A7A7A7A7AE9
:101380007A7A7A7A7A7A7A7A7A7A7A7A7A7A7A8DAA
:101390008D5D8D81A98DA98D8D8D8D8D8D8D8D8D81
:1013A0008D8D8D8D8D8D8D8D8D8D8D8D8D8D8D8D6D
:1013B0008D8D8D8D8D8D8D8D956B6F676F6FB36FEF
:1013C000B36F6F6F6F6F6F6F386B6B6B6B6B6B6B3C
:1013D000C7C7C7C7C7C7C7C7C76F6F6F6F6F6F6F05
:1013E0006F6F6F7E7E667E7EB27EB27E7E7E7E7EFA
:1013F0007E6A7E7E7E7E7E7E7E7E7E7E7E7E7E7E21
:101400007E7E7E7E7E7E7E7E7E7E7E7E7E7B7F4735
:101410007F7FB37FB37F7F7F7F7F7F737F7F7F7F80
:101420007F7F7F7F7F7F7F7F7F7F7F7F7F7F7F7FCC
:101430007F7F7F7F7F7F7F75756D7575B175B175A6
:10144000757575757565757575757575757575755C
:10145000757575757575757575757575757575753C
:1014600075D5F08D14A1C881CFD9F1AF2000281B0C
:10147000131A1708E35BA755B9CBB9524A2AA994A6
:10148000923B27EDD66ED3A9547AA9E4765731A6BC
:1014900052D9AD72EEAA2A5595AA5455AA5CAF4A04
:1014A000D9753AA9A4EAFFAFEEEA964A2A9DCE85FD
:1014B000C590B4DD3AFA70081A17B473CED9CB5D73
:1014C0007A3B716E3B7B3A2D552A954AA59D736EEA
:1014D000BB5D76EAD3F9E1A4A592DBED8A2A9D4EA5
:1014E000A7F34A2AA95C3AADA49252492555BA9469
:1014F0005452A10E000000000000010F0000000087
:10150000020F0000000003000000000004000000C3
:101510000000050F00000000120000000100081983
:10152000000001000B000000000008000001008224
:101530000B000000000008000001007D1000040105
:1015400000000819030000780B00000000000800EC
:10155000000100730B000000000008000001006E95
:101560000B000000000008000001006910000200EC
:101570000000140F00000100060000000000080039
:1015800000020000080000020000080000010064E2
:1015900008000002000008000001005F08000002CF
:1015A0000000080000020000080000010050080AC6
:1015B0000002000010000200004B150000000000B7
:1015C0000F0000000000080B0002020200000904E6
:1015D00000000102020000052400100105240101A1
:1015E00001042402060524060001070581031000FA
:1015F0004009040100020A00000007050202400041
:1016000000070583024000000403090412010002E0
:10161000EF020140412336800001010203014172C3
:101620006475696E6F204C4C430041726475626F43
:10163000790000EE0001FFEE010109EA020106EE69
:10164000010008ED0701FBE70301F7E80601FADDF9
:101650000801FEEE0901FFEE0901FFEE0901FFEEB0
:101660000901FFEE0901FFEE090103ED0A0118F17E
:101670000B0109EE050109EE0C0107EE0500FEEE77
:101680001601FEEE170107EE1801FEEE16010EF828
:101690000D0106EC0E0105EC0F0109EC100109EC3F
:1016A000110106EC120109ED150105EC14010FEC16
:1016B00013010DF10B00FFF80D00FFEC0E00FCEC28
:1016C0000F0000EC100008EC1100FBEC120008ED1C
:1016D000150000EC140009EC13000CED19000CEDE2
:1016E0001A0003F31B0102F51C0103EF1D01FFF3B8
:1016F0001E01FDF61F01FEF5200100007F00000025
:101700007F0000007F0000007F0000007F000000DD
:101710007F00FEFE2700FEF52800FEF52900FEF5FD
:101720002A00FEFE2701FEF5280100002900000026
:101730002A0000002B0000002C0000002D0002E118
:10174000000102E100010BE1010102E1000108E0FA
:10175000040108E1020109E0030113D60501F8DFE5
:101760000601FBDF0A01F8DD0701FADB0B01FCDFF4
:101770000801FBDF09010BE00C0119E10D0102E199
:10178000000102E1000102E1000102E1000102E1C9
:10179000000102E1000102E100010FE00E010AE098
:1017A0000F010AE00F010BE0100106E0110104E057
:1017B000120108E0140104E0120114E013010DE12C
:1017C0000D0005E00E0008E00F0008E00F000CE03F
:1017D00010000CE0110006E012000CE0140006E01E
:1017E00012000AE013000DE215000DE4160004E5F6
:1017F000170109ED18010DD801010DD8010118D804
:1018000001010DD8010116D8010119DA010118D81A
:1018100001011EDC01010BD801010CD801010CD81B
:1018200001010BD801010BD801010BD801010ED821
:10183000010119D801010DD801010DD801010DD800
:1018400001010DD801010DD801010DD801010DD8FC
:1018500001010FD801010CD801010CD801010CD8ED
:1018600001010CD801010CD801010CD801010CD8E0
:10187000010115D801010FD801000BD801000FD8C4
:1018800001000FD801000FD801000FD801000FD8B8
:1018900001000FD801000FD801000FD8010014DAA1
:1018A000010014DC010015DD010119E7010119EA4D
:1018B00001011FEE0101FFEE000005EE010007EA45
:1018C0000200FEEE010101ED07000AE7030009E84E
:1018D00006000ADD0800FFEE0900FFEE0900FFEE3A
:1018E0000900FFEE0900FFEE0900FFEE090000ED20
:1018F0000A0000F10B0007EE050008EE0C0009EEEF
:10190000050101EE160005EE170005EE1800FDEECC
:101910001601FFF80D00FFEC0E00FCEC0F0000ECD0
:10192000100008EC1100FBEC120008ED150000ECB3
:101930001400FFEC130000007F0000007F00000097
:101940007F0000007F0000007F0000007F0000009B
:101950007F0000007F0000007F0000007F00FFED9F
:101960001900FFED1A00FFF31B00FFF51C00FFEF4D
:101970001D00FBF31E00F8F61F00F8F52000F4F13F
:101980002100F6F02200F6ED2300F6E82400F6E24E
:101990002500F6E2260009E1000009E1000000E16F
:1019A000010009E1000000E0040000E1020000E0A5
:1019B0000300F7D6050007DF060009DF0A0009DD8E
:1019C000070007DB0B0007DF080009DF09000AE05A
:1019D0000C0000E10D0009E1000009E1000009E14F
:1019E000000009E1000009E1000009E1000009E14F
:1019F000000005E00E0008E00F0008E00F000CE01A
:101A000010000CE0110006E012000CE0140006E0EB
:101A1000120000E0130000007F0000007F000000C3
:101A20007F0000007F0000007F0000007F000000BA
:101A30007F0000007F0000007F0000007F0000E2C8
:101A4000150000E4160002E51700FEED18000ED99F
:101A500000000ED9000003D900000ED9000005D9FE
:101A6000000002DB000003D90000FDDD000010D9FA
:101A700000000FD900000FD9000010D9000010D9C4
:101A8000000010D900000CD9000002D900000ED9C6
:101A900000000ED900000ED900000ED900000ED9AA
:101AA00000000ED900000ED900000BD900000FD99C
:101AB00000000FD900000FD900000FD900000FD986
:101AC00000000FD900000FD9000005D90000000068
:101AD0007F0000007F0000007F0000007F0000000A
:101AE0007F0000007F0000007F0000007F000000FA
:101AF0007F0000007F0007DB000007DD000006DE3E
:101B0000000002E8000002EB0000FCEF0000000013
:101B10007F0000007F00FFEB000007EB000007EAFA
:101B2000000000007F0000007F0007DC0000121EA4
:101B300011241FBECFEFDAE0DEBFCDBF12E0A0E080
:101B4000B1E0E2E4FEE502C005900D92AE33B107CC
:101B5000D9F727E0AEE3B2E001C01D92A833B20787
:101B6000E1F71DE0C8E9DDE004C02197FE010E9415
:101B7000192FC739D107C9F70E94411E0C941F2F96
:101B80000C94000080389105C0F460347105A9F010
:101B900090E121E031E061FD34E060FD330F62FD52
:101BA0003295687F969FD0011124A80FA655BD4F8E
:101BB0000C90032A20FF03260C9208955E98EAEA0F
:101BC000F2E081E0A0E0B8E000800EBC8111012CC1
:101BD0001197A0FDFDCF0192B9F70DB45E9A08955B
:101BE000FC018091A902882311F13FB7F89482E0AB
:101BF0008093E9002091F200822F90E018161906D8
:101C000014F481E090E0882339F0289844E640936A
:101C1000A8024091F1004083222339F02091F20084
:101C2000211103C02BE62093E8003FBF08958FEFFA
:101C30009FEF08952FB7F89483E08093E900909187
:101C4000E800892F807295FF04C09091F20080E433
:101C5000891B2FBF08958091A00281110DC082E0E1
:101C600080939C0284E080939D0210929F021092C8
:101C70009E0281E08093A0028CE992E00895CF93C8
:101C8000DF931F92CDB7DEB76983DC01ED91FC9144
:101C90000280F381E02D41E050E0BE016F5F7F4F95
:101CA00009950F90DF91CF91089583E08093E9002B
:101CB0008091F200882319F08AE38093E800089568
:101CC0000E941A0E90E00895CF93DF931F92CDB734
:101CD000DEB7FC018485958597FD08C02FEF3FEFA7
:101CE000358724870F90DF91CF910895CE0101961B
:101CF0000E94F00D019719F4898190E0F3CF8FEFE6
:101D00009FEFF0CF0F931F93CF93DF931F92CDB729
:101D1000DEB78C01FC018485958597FF0BC0CE0151
:101D200001960E94F00D019771F4898190E0F8010D
:101D300095878487F801848595850F90DF91CF91F1
:101D40001F910F9108958FEF9FEFF1CFFC018485D4
:101D5000958597FD0BC09FB7F89482E08093E900CA
:101D60008091F2009FBF90E0019608959FB7F8948C
:101D700082E08093E9008091F2009FBF90E0089597
:101D800040919602509197022091940230919502D1
:101D900042175307B4F49091E8009570E1F39091E5
:101DA000E80092FD19C08093F10080919602909115
:101DB000970201968F739927892B19F48EEF8093E0
:101DC000E800809196029091970201969093970275
:101DD0008093960281E0089580E00895EF92FF924B
:101DE0000F931F93CF93DF93F82E192FE62E042F16
:101DF00081E0860F880F0E94C00E83E00E94C00E13
:101E0000CF2DD12FEC0EFD2EF11CCE15DF05B9F034
:101E100007FF13C0FE0184910E94C00E182F80E0BE
:101E20000E94C00E812321968111EFCFDF91CF91C7
:101E30001F910F91FF90EF9008958881EDCF81E081
:101E4000F5CFDF92EF92FF920F931F93CF93DF9323
:101E5000D82E8A01EB017B01E40EF51ECE15DF05BD
:101E600059F0D7FE12C0FE0184910E94C00E219647
:101E70008111F4CF0FEF1FEFC801DF91CF911F91B8
:101E80000F91FF90EF90DF9008958881EECF0F9330
:101E90001F93CF93DF931F92CDB7DEB782E0898384
:101EA00042E450E066EC75E180E80E94210F0E9458
:101EB0002B0EDC0112960D911C910115110589F074
:101EC000D801ED91FC910280F381E02DBE016F5F9E
:101ED0007F4FC801099597FD04C0F8010085118561
:101EE000ECCF89810F90DF91CF911F910F910895D1
:101EF000615030F02091F100FC0120830196F8CF71
:101F0000289884E68093A80208958FB18095807FF9
:101F1000669B88601C9B8460089590917F02982343
:101F200029F490918002982381E009F480E00895DB
:101F300090E0EAEAF2E091119FEF8FEF9193919395
:101F4000919391938150D0F708950E94B00F982FEC
:101F50000C94B00F0DB407FEFDCF8EB5599A0895BD
:101F60000DB407FEFDCF8EB51EBC08950E94B00FC4
:101F7000982F0C94AA0F90E0409F09F4142E552737
:101F8000090E151E600D711D851F11240C94EA0F9A
:101F90000F9303E020E00E94BB0F0E94A50F782F53
:101FA0000E94AA0F682F892F0F9108950F9301E0C7
:101FB00020E00E94BB0F0F910C94AA0F59980E9429
:101FC0004411862F0E944411852F0E944411842FB2
:101FD0000C944411462F50916B02570F60916C0284
:101FE000681F83E00E94DE0F1EBC08953F924F924F
:101FF0005F926F927F928F929F92AF92BF92CF9299
:10200000DF92EF92FF920F931F93CF93DF935C01C8
:102010006B013901842E302E9E2C842FB9010E9431
:10202000EA0F0E94A50F482EC82FD92F0E94B60F85
:10203000FC019E012A0D3B1D121613060CF0F0C088
:1020400040E8A416B1040CF0EBC08C0D9D1D1816D1
:1020500019060CF0E5C040E4C416D1040CF0E0C051
:10206000B7FE0BC0EE24FF24EA18FB084E182038F8
:1020700031055CF050E8452E08C0213831051CF0D0
:1020800020E8422E4A18F12CE12CD7FEDBC00027B5
:1020900011270C191D09087FCF01801B910B5E2EA3
:1020A000501A8134910534F08C2D8195877040E46D
:1020B000542E580E15950795159507951595079566
:1020C000CF010796969587959695879596958795CE
:1020D000389E9001399E300D1124200F311F40E0B1
:1020E000BE010D2E000C880B0E94EF2EA82FCB01F5
:1020F0008E0D9F1DA11DF7FCAA95992029F0880F30
:10210000991FAA1FCC0FDD1F24E0620E711C811CD9
:10211000680E791E8A1EC60123E0959587952A953B
:10212000E1F7080F31E0C1FC34E0C0FC330FC2FC22
:10213000329540E80403D0011124AA0DBB1DAE0D59
:10214000BF1DA655BD4F252D599883E08EBD8091AA
:102150006B0290916C02870D981D0DB407FEFDCFA8
:102160009EBD0DB407FEFDCF8EBD0DB407FEFDCFA5
:102170006EBC6C0E7D1E811C0DB407FEFDCF1EBC17
:10218000990C073014F4089430FD8894979462E019
:1021900021FD68E022FD629520FF66956A9511F0A9
:1021A00028300CF06FEF942D0EB41EBC93FC062665
:1021B000862F90FC802D92FC0024039EA00194FAAF
:1021C00036F4C895C89511240EB41EBC90FC082E98
:1021D000039E003034F08C9191FE4827402148271F
:1021E0004C93A058BF4F97FE06C08C9191FE582784
:1021F000512158275C93112495FCA15895FEAF57A7
:10220000B1099A9589F6842D95FE81958058A80F7D
:10221000B11D285003950DB4599A12160CF494CFA1
:10222000DF91CF911F910F91FF90EF90DF90CF90B2
:10223000BF90AF909F908F907F906F905F904F90E6
:102240003F9008955E2E813491051CF080E4582E55
:102250005C1810E000E034CF0F931F93CF93DF930F
:10226000EA0189010E94EA0FFE010150104021F0AD
:102270000E94B00F8193F9CF0E94AA0F8083DF9153
:10228000CF911F910F9108958EBD00008EB50DB4B2
:1022900007FEFCCF0895FC010E94E611319728F05B
:1022A00068517C4F8F4F9F4FF9CFAB01FC010E94CB
:1022B000E611641775078E079F07C8F3089585E038
:1022C00090E00C944B118F929F92AF92BF92CF925D
:1022D000DF92EF92FF920F931F93CF93DF936C01E6
:1022E0007B018A0180912D01882309F45AC08091D5
:1022F000A902882309F455C080919B0280FF05C084
:102300008091E00082608093E000E801B12C8AEFC8
:10231000A82E93E0892E2AE3922E209711F4BB2059
:10232000C9F10E941A0E811108C0AA94AA20C9F10D
:1023300081E090E00E944B11F0CF8C171D0611F048
:102340000CF08C2F9FB7F8948092E9002091E80060
:1023500025FD02C09FBFE1CF282F30E0C21BD30B69
:10236000F701815020F041914093F100FACFE20E45
:10237000F31EBB2021F09092E800B12CEBCF8091AE
:10238000E80085FDE7CF9092E800BB24B394209746
:1023900009F3F3CF5D9884E680939A021016110634
:1023A0003CF081E090E0F6019383828310E000E04E
:1023B000C801DF91CF911F910F91FF90EF90DF90B7
:1023C000CF90BF90AF909F908F900895A5E6B2E018
:1023D0002FB7F8947D918D919C9166B52FBFA89BE6
:1023E00005C06F3F18F47F5F8F4F9F4F22E0660F4D
:1023F000771F881F991F2A95D1F708951F93CF93B0
:10240000DF93DC0130E020E050E040E011E0C1E08B
:10241000D0E02617370791F114968C91149781110B
:1024200015C014961C93149712968D919C91139736
:10243000ED91FC911197E80FF91FE4911596EC933B
:102440001597019613969C938E93129714969C91D0
:10245000149715968C911597892349F0FE01022E49
:1024600002C0EE0FFF1F0A94E2F74E2B5F2B990F6D
:1024700014969C9314972F5F3F4FCBCFCA01DF91E7
:10248000CF911F9108952F923F924F925F926F923A
:102490007F928F929F92AF92BF92CF92DF92EF92F4
:1024A000FF920F931F93CF93DF93CDB7DEB72F9794
:1024B0000FB6F894DEBF0FBECDBF4C017B012C8759
:1024C0000D875A8349831C821B821D821E8268E00D
:1024D00070E0CE0101960E94FE111C019C012F5F4D
:1024E0003F4F3B872A8768E070E0CE0101960E944B
:1024F000FE118C0161E070E0CE0101960E94FE1198
:102500002A853B85280D391D37FDF5C030E8831637
:1025100091040CF0F0C00F5F1F4F98012E0D3F1D6E
:1025200037FDE9C040E4E416F1040CF0E4C06701B3
:10253000F7FE04C0CC24DD24CE18DF0857E0C52206
:10254000DD242701F7FE03C097E0490E511C73E01C
:10255000559447947A95E1F7F7FE09C021E0421AB5
:10256000510828E030E0A9014C195D096A01980181
:1025700017FF02C0295F3F4FA90163E055954795BA
:102580006A95E1F758874F8307701127012B21F0D7
:102590004F5F5F4F58874F830D857101011102C056
:1025A000F12CE12C898701E010E0B12CA12C88E00E
:1025B00090E09C012C193D093F872E874F8158855B
:1025C000A416B5060CF097C066246394712C61E0E4
:1025D00070E0CE0101960E94FE11892B21F452E099
:1025E000650E711CF4CFB301CE0101960E94FE115D
:1025F00001963C0170E060E06615770508F071C057
:1026000089858111102BA02FAA0F09F067C0A201A4
:102610004A0D5B1DCA0101960997D0F5C4018E0DC4
:102620009F1D80389105A0F5CA019695982F88279F
:1026300097958795880D991D8E0D9F1D4F3F5407C7
:1026400009F454C0212F0C2C01C0220F0A94EAF780
:10265000FC01E655FD4FB0810C85002371F12B2B59
:102660002083C114D104A1F04730510589F0212FF6
:1026700030E00E8402C0359527950A94E2F7FC01FC
:10268000E65DFC4F10814C854423D1F0212B208343
:102690000D85011118C02FEFE21AF20A4A855B85F9
:1026A000E416F506CCF05FEFA51AB50A01E0F12CAF
:1026B000E12C6F5F7F4F1A2F9FCF20952B23D0CF18
:1026C00020952123E4CF81E0E81AF108F7FE04C049
:1026D0009FEFA91AB90A710101E0EBCF0A2FA12FD0
:1026E000E8CF298531E02327298768CFC114D10499
:1026F00009F0BDCFCDCF2F960FB6F894DEBF0FBE39
:10270000CDBFDF91CF911F910F91FF90EF90DF90A0
:10271000CF90BF90AF909F908F907F906F905F9081
:102720004F903F902F9008953F924F925F926F92FB
:102730007F928F929F92AF92BF92CF92DF92EF9251
:10274000FF920F931F93CF93DF93682E562E84E052
:10275000489F90011124C9010196E901229648334E
:1027600008F0AFC0D901A25BB54EFD01C490FC01D9
:10277000E25BF54E1491FE01E25BF54E7490FD01B3
:102780003396E4914E3208F0A0C0A9014A56564E45
:10279000FA014490FC01EA56F64ED490FE01EA5646
:1027A000F64EA490FA013396E49141E0E13009F04D
:1027B00040E0B42E2A54374EF9018490FC01EA54CB
:1027C000F74EE490CA54D74EFE01C491F9013396F6
:1027D000E491CF3751F133243394E13009F0312CB7
:1027E000D0E00E2C000CFF08E50CF11C57FCFA940D
:1027F000082C000C9908860C911C67FC9A94CC0F4D
:10280000DD1FFE01E053FE4F40815181032D20E08A
:10281000B701C4010E944312CC58DE4F4881598150
:1028200021E0B701C4010E9443124A2D62EE78E70D
:1028300080E00E94C80F9B01482FFFE7AF1699F078
:102840006D2DDD0C770B650D711D57FC7A95842D70
:10285000440C990B50E1E52E0B2D860D911D67FC64
:102860009A950E94F60F8FE77816C9F0612F110F25
:10287000770B650D711D57FC7A95615071098C2D90
:10288000CC0C990B860D911D67FC9A9520E1E22EE8
:1028900000E02AE333E640E001970E94F60FDF9163
:1028A000CF911F910F91FF90EF90DF90CF90BF904D
:1028B000AF909F908F907F906F905F904F903F90E0
:1028C0000895C12C10E0EFE77E2EB12C7FE7A72EF4
:1028D000D12C412C6FCF3F924F925F926F927F929B
:1028E0008F929F92AF92BF92CF92DF92EF92FF9220
:1028F0000F931F93CF93DF93C82E462E24E0429F61
:10290000C00111249C012F5F3F4FEC012296403300
:1029100008F0ACC0BC016A50784EFB015490F9013C
:10292000EA50F84E7490FE01EA50F84EE491FB0133
:102930003396E49151E0E13009F050E0952E4E32AB
:1029400008F097C0AC01425C584EFA016490F9015E
:10295000E25CF84E8490FE01E25CF84ED490FA01FD
:102960003396E49111E0E13009F010E08E5C994E6D
:10297000FC01A490F901EE5CF94EE490CE5CD94ED6
:10298000FE01C491FC013396E491CF3751F1332419
:102990003394E13009F0312CD0E00E2C000CFF080C
:1029A000E40CF11C47FCFA940A2C000CBB08AC0C9C
:1029B000B11CC7FCBA94CC0FDD1FFE01E053FE4FE3
:1029C00040815181032D20E0B701C5010E944312CF
:1029D000CC58DE4F4881598121E0B701C5010E94E2
:1029E00043124D2D62EE78E780E00E94C80F9B01F4
:1029F000482FFFE7DF1641F1C42D440CDD0B0C2CF2
:102A0000000CDD08BE01680D711D87FC7A9580E120
:102A1000E82E012FC601860D911D67FC9A950E9434
:102A2000F60FBE01670D711D77FC7A956150710933
:102A3000C601850D911D57FC9A95092D22E633E6B6
:102A400040E001970E94F60FDF91CF911F910F9107
:102A5000FF90EF90DF90CF90BF90AF909F908F90BE
:102A60007F906F905F904F903F900895512C712C04
:102A7000912C10E04FE7D42E812C612C77CFFC01F4
:102A800010820895CF93DF93FC01968D9E3121F43F
:102A900080E0DF91CF910895DB018C91DF01A90FD8
:102AA000B11D8C93A1E0A90FA68FAE3189F3EA0185
:102AB0008881AE0FBF2FB11D8C939E5F968F81E0F2
:102AC000E8CFCF93DF93EC019E8D80E09E3189F0BB
:102AD000FE01E90FF11DEC17FD0729F0DF018E91D2
:102AE0008083FD01F8CFDB018C9180839F5F968FFF
:102AF00081E0DF91CF910895FC01968D9E3151F0D8
:102B0000DB018C91DF01A90FB11D8C939F5F968F24
:102B100081E0089580E00895CF93DF93FC01868DD6
:102B20008E3121F480E0DF91CF910895DB019C91FB
:102B3000DF01A80FB11D9C93A1E0A80FA68FAE31B5
:102B400089F3EA019881AE0FBF2FB11D9C93A2E0DB
:102B5000A80FA68FAE3131F3E9019881AE0FBF2FD8
:102B6000B11D9C938D5F868F81E0DDCF85508930CC
:102B700098F4E82FF0E0E154FA4E0C94192FCF1599
:102B8000CF15CF15CE15CE15C815C815CA15CA153F
:102B900084E0089585E0089589E0089583E008952C
:102BA000CF93DF9300D01F92CDB7DEB7663041F0F0
:102BB000673059F10F900F900F90DF91CF910895EA
:102BC0008330A8F08630B0F78EE08B8383E08A8371
:102BD00019829E012D5F3F4FAE014E5F5F4FBE01D8
:102BE0006F5F7F4F8AEF96E00E948C15E3CF83E002
:102BF0008A831982AE014E5F5F4FBE016F5F7F4FC8
:102C00008AEF96E00E944215D5CF833020F08630BF
:102C100088F68EE001C082E08983BE016F5F7F4F3E
:102C20008AEF96E00E947C15C5CF0F931F93061B79
:102C3000170B17FF03C01195019511094130C9F415
:102C4000E22FF0E09AE2899FE00DF11D1124EB598B
:102C5000FC4E2491849130E0359527953595279544
:102C600020173107A4F0837009F48FEF1F910F91A3
:102C70000895853039F0045211090730110538F4F0
:102C800083E0F4CF0F51110905301105C8F380E03E
:102C9000EDCFAF92BF92CF92DF92EF92FF920F9360
:102CA0001F93CF93DF9388E00E948D0F811105C0A1
:102CB00084E00E948D0F882339F0809191028093E7
:102CC0008D0289E08093910280919202909193020B
:102CD0008F70992701E0089708F000E0E12C28E0C8
:102CE00038E040E061E170E080E290E00E94F60FA1
:102CF000809192029091930264E270E00E94052F0D
:102D00008231910508F043C061E1099708F06EE156
:102D1000EEE5F3E19491EFE5F3E18491492F50E082
:102D2000463251050CF096E2E1E0282F277009F4B5
:102D3000E0E08695869586958E0F863008F085E0D2
:102D40008D5F70E6E72E73E1F72E23E00AED11E0C8
:102D5000821709F1D801A655BD4FD0E0C0E0C917D0
:102D600080F5F701EC0FFD1FE491F0E05F01AA0C84
:102D7000BB1C27FF1FC06D01E0E8CE0ED11CF60181
:102D800030813E7F3B29308321961196E8CF6FE159
:102D90004B9708F060E270E084E390E0DF91CF9120
:102DA0001F910F91FF90EF90DF90CF90BF90AF9069
:102DB0000C94C20D3C9131703A293C93273024F792
:102DC000DACF2F5FE40EF51E00581F4FC1CF0F93CF
:102DD0001F93CF93DF93C6E3D0E010E000E0BE0185
:102DE000C8010E94C20D0E5F1F4F02381105B9F7CE
:102DF0002296C034D10589F7DF91CF911F910F91B1
:102E00000895EF920F9380E1E82E00E02EEC3FE56D
:102E100040E063E070E090E080E00E94F60F0F91E8
:102E2000EF900895EF92FF920F931F93CF93DF934C
:102E3000C2E3D0E098E4F92E0F2D10E0013811051F
:102E40003CF4BE01C8010E94C20D0E5F1F4FF6CFB9
:102E500084E1C833D1050CF48CEEF80E2296C03410
:102E6000D10551F780E1E82E00E022E931E640E0AB
:102E700066E070E080E190E00E94F60F2EE033E51E
:102E800040E061E170E087E590E00E94F60FDF919D
:102E9000CF911F910F91FF90EF9008958F929F9285
:102EA000AF92BF92CF92DF92EF920F931F93CF9387
:102EB000DF93C0917A020C2E000CDD0B4E0180E3F3
:102EC000880E911C5E0190E6A90EB11C6E0180E98E
:102ED000C80ED11C80910101E12C00E02EEA33E6FE
:102EE00040E0882309F466C070E060E090E080E094
:102EF0000E94F60F90E1E92E20EB34E540E06EEF02
:102F00007FEFCE010E94F60F20EB34E540E06EEF3C
:102F10007FEFC4010E94F60F20EB34E540E06EEF36
:102F20007FEFC5010E94F60F20EB34E540E06EEF25
:102F30007FEFC6010E94F60F80918A02882381F0FC
:102F40008091160190911701E12C00E028EB3AE501
:102F500040E068E270E09195819591090E94F60F3A
:102F600080919202909193026CE070E00E94052F94
:102F7000892B31F48091540291E089278093540287
:102F800080911B018531D0F16AE00E94F92ED82E84
:102F9000D0E0C0E010E0D116A9F1E12C00E022EA77
:102FA00034E540E06BE370E0CE010E94F60F1F5F56
:102FB0002496F1CF62E070E090E080E00E94F60F8E
:102FC00080E1E82E24EB37E540E06EEF7FEFCE01A5
:102FD0000E94F60F24EB37E540E06EEF7FEFC4016F
:102FE0000E94F60F24EB37E540E06EEF7FEFC5015E
:102FF0000E94F60F24EB37E540E099CF9091540200
:103000009111C2CF80918902813009F580910B0125
:10301000853120F4909154029923C9F06AE00E940E
:10302000F92EC1E8D0E094E0899FC019D10911249C
:10303000C138D10561F0E12C00E029EA34E540E037
:103040006BE370E0CE010E94F60F2496F1CFDF9182
:10305000CF911F910F91EF90DF90CF90BF90AF90E5
:103060009F908F900895EF920F93CF9388E00E94E6
:103070008D0FC0919102882399F0CF3021F41092E6
:10308000900210928F0288E197E00E943F15C09352
:103090008D0289E080939102CF910F91EF90089576
:1030A000C53009F47CC018F5CC2309F46CC0E12CC0
:1030B00000E024E034E040E0C13009F469C08091D0
:1030C00092029091930265E070E00E94052F892B97
:1030D00019F7809186028823F9F281508093860245
:1030E0008111DACF8091910280938D02D2CFCF30BF
:1030F00009F45BC0C43109F465C0CC3001F70E940B
:103100004E17809192029091930265E070E00E94C8
:10311000052F892B71F4E0911807EE2309F46AC09A
:10312000E150E0931807F0E0E650F94F808180937A
:10313000020180911501882379F090917A02890F1C
:10314000803D0CF45FC080937A0280917A02181659
:103150001CF4805380937A028091030190910401C2
:10316000803891050CF0ABCF20918F023091900206
:103170002132310509F4A3CF409102016091080189
:103180000E946B149CCFE12C00E020E030E040E096
:1031900070E060E090E080E00E94F60F90CFE12CBC
:1031A00000E02CE03AE040E0F3CF81E080930101C1
:1031B000E12C00E020E13EE040E06AE170E082E2E4
:1031C00090E0EACF0E9412170E94011700E020E071
:1031D0004BE253E163E170E08DE590E00E94431221
:1031E00021E046EE52E163E170E08DE590E00E945F
:1031F000431265CF10921501C0938D0289E0809330
:10320000910297CF10927A02A0CF10927100109283
:10321000C1001092550210927602089580915502D5
:10322000882309F42CC080915C02811128C0609130
:103230005D0270915E0280915F0227E030E046E51A
:1032400052E00E942C11E6E5F2E0219181919191EA
:10325000892B11F41092550290E080E02695821B94
:103260009109219141915191452B11F410925502F0
:103270002695821B9109909353028093520280916C
:1032800076028823C1F080914D02811114C06091B3
:103290006002709161028091620224E030E04AE4B1
:1032A00052E00E942C1180914B0290914C02892B8C
:1032B00011F41092760280915502811106C080911E
:1032C0007602811102C00C9405190895CF93482FFE
:1032D00069E878E880E00E94C80F6093600270930C
:1032E000610280936202C1E0C09376020E940E19CF
:1032F0008091710081110FC080E094E0909399005B
:10330000809398001092950010929400C093C10091
:1033100082E080937100CF910895809155028111D0
:1033200004C080917602882339F080914702109280
:1033300047028F3F11F481E008950E940E19809199
:103340005C02882399F0815080935C0281110EC049
:1033500080915D0290915E02A0915F020796A11D8F
:1033600080935D0290935E02A0935F0280914D0274
:10337000882309F3815080934D028111DCCF809125
:10338000600290916102A09162020496A11D809357
:10339000600290936102A0936202CDCFCF92DF9240
:1033A000EF92CF93482F64E778E880E00E94C80F3F
:1033B0006B01E82E0E940519C0925D02D0925E0258
:1033C000E0925F0210925C02C1E0C09355020E943D
:1033D0008D1980E094E0909399008093980010926A
:1033E000950010929400C093C10082E08093710018
:1033F000CF91EF90DF90CF900895CF92DF92EF9230
:10340000FF926B017C01C114D104E104F10441F08D
:103410000E94342EA70196010E948C2E6B017C0124
:10342000C701B601FF90EF90DF90CF9008951F92F3
:103430000F920FB60F9211248F939F938091E1000A
:103440009091E100937F9093E10083FF0FC0109271
:10345000E90091E09093EB001092EC0092E39093DE
:10346000ED001092A90298E09093F00082FF22C034
:1034700093E09093E9009091F200992319F09AE378
:103480009093E80090919A02992341F090919A02CA
:10349000915090939A02911101C05D9A9091A80267
:1034A000992341F09091A80291509093A802911114
:1034B00001C0289A84FF18C08091E2008E7E81604E
:1034C0008093E2008091E1008F7E8093E100809103
:1034D0009B028E7E806180939B029F918F910F90C3
:1034E0000FBE0F901F90189580FFF7CF8091E200DC
:1034F0008E7E80618093E2008091E1008E7E8093D9
:10350000E10080919B028E7E8160E5CF1F920F9239
:103510000FB60F921124CF92DF92EF92FF920F938A
:103520001F932F933F934F935F936F937F938F934B
:103530009F93AF93BF93EF93FF93CF93DF93CDB759
:10354000DEB76C97DEBFCDBF1092E9008091E80036
:1035500083FF25C068E0CE0145960E94780F82EF78
:103560008093E8008D8987FF39C09091E80090FF33
:10357000FCCF982F907609F034C19E894F89588DE1
:103580002F89F88C911131C0803861F580919902B2
:103590008093F1001092F1008EEF8093E8006C961A
:1035A0000FB6F894DEBF0FBECDBFDF91CF91FF9174
:1035B000EF91BF91AF919F918F917F916F915F91AB
:1035C0004F913F912F911F910F91FF90EF90DF90BE
:1035D000CF900F900FBE0F901F9018959EEF909375
:1035E000E800C7CF1092F100D5CF913059F4811186
:1035F000D3CF4130510581F6809199028D7F809320
:103600009902CACF933049F48111C6CF4130510598
:1036100019F6809199028260F2CF953041F4809141
:10362000E80080FFFCCF20682093E300B5CF963000
:1036300009F0A9C00B8D1C8D22E01092E9001092B8
:10364000970210929602F2122EC0109295021092DA
:1036500094020E94470F1F8299E09983FA8291E0B9
:103660009E8390EA98879AEF9987209196023091ED
:103670009702275F3F4F3C832B838D831092E90095
:103680001092970210929602109395020093940262
:1036900049E050E0BE016F5F7F4F80E00E94210F44
:1036A0000E94470F79CF10939502009394020E94D5
:1036B0002B0EDC0112960D911C910115110509F4D8
:1036C00051C1D801ED91FC910480F581E02DBE013E
:1036D0006B5E7F4FC8010995009709F03EC1F80164
:1036E00000851185EACFF3E0FF120EC08F89882391
:1036F00009F440C0823061F440E867E08AE296E174
:103700000E94EE0E811148CF81E28093EB0047CFFB
:10371000813029F440E86BE08EE196E1F1CF83300F
:1037200099F70E942B0EDC011296ED90FC908E0111
:103730000F5F1F4F6801E114F10479F0D701ED919B
:10374000FC910680F781E02DB801C7010995080FAB
:10375000111DF701E084F184EECFD8011C92F6012F
:1037600001900020E9F73197BF016C197D0940E015
:10377000C601C6CF68E076E1FB01449150E080E8E5
:103780000E94210F09CF973009F4BECF983021F461
:1037900081E08093F10000CF993009F0FDCE837075
:1037A00009F0B2CFEEE6F1E081E031E096E321915D
:1037B000222371F08093E9003093EB00DF01119731
:1037C0002C912093EC009093ED008F5F873079F778
:1037D0008EE78093EA001092EA008F898093A90215
:1037E000DBCE8B8D9C8D1092E90010929702109287
:1037F00096029093950280939402898D811192C0D4
:103800008E899D89913A49F4813209F07DCF47E054
:1038100050E066E271E080E0B3CF913209F074CFFE
:10382000833269F48F89988DB0E0A0E08093220103
:1038300090932301A0932401B0932501ADCE803253
:1038400069F48091E80082FFFCCF67E086E291E0B6
:103850000E94780F8BEF8093E8009ECE823209F0B1
:103860009BCE8F8980932D01EEEFFFE78591949198
:103870008B3F9C4D51F1E0E0F8E080912601909162
:103880002701A0912801B0912901803B9440A10516
:10389000B105F1F480912D0180FD1AC0EE3F8AE060
:1038A000F80789F587E797E7918380838091600027
:1038B0008093980288E19BE00FB6F894A8958093D6
:1038C00060000FBE9093600067CEEEEFFAE0D5CFB8
:1038D000808191818737974709F05ECEA8958091C6
:1038E00060008861809360008091980280936000FE
:1038F000EE3F2AE0F20789F08091FE0A9091FF0ADC
:103900009183808349CE808191818737980751F2D6
:103910009093FF0A8093FE0AC5CF1092FF0A10927F
:10392000FE0A3ACE0E942B0EDC0112960D911C91DC
:103930000115110509F4E8CED801ED91FC91019033
:10394000F081E02DBE016B5E7F4FC80109958111AA
:1039500023CEF80100851185EBCF181619060CF45B
:103960001BCED2CEF1E0FF12BECE6CE076E104CFEA
:103970000F920FB68F939F93EF93FF938091640202
:103980008D5F8D3708F08D5780936402E0E7F2E099
:1039900080818E4F808391819F4F918382818F4F51
:1039A000828383818F4F8383E5E6F2E080818F5F9E
:1039B000808381818F4F818382818F4F8283838136
:1039C0008F4F83838FB18F6066991C9B88278F36BA
:1039D00081F480916302981B963068F0E0E0F8E093
:1039E00087E78083818388E180936000F0936000A3
:1039F000FFCF90936302FF91EF919F918F910FBE44
:103A00000F9018951F920F920FB60F921124AF923C
:103A1000BF92CF92DF92FF920F931F932F933F930A
:103A20004F935F936F937F938F939F93AF93BF93C6
:103A3000EF93FF93CF93DF9300D01F92CDB7DEB704
:103A400080916D02882391F180915502811104C00B
:103A500080917602882351F140919800509199000D
:103A6000569547955695479580915502811141C0CD
:103A700030E020E08FEF9EE360917602662309F448
:103A8000ADC0EAE4F2E06191662309F4A7C0A19118
:103A9000B191E0914802F09149024E0F5F1F4A1721
:103AA0005B0708F475C04A1B5B0BF9CF8FEF9FEFE4
:103AB00090939900809398000F900F900F90DF9152
:103AC000CF91FF91EF91BF91AF919F918F917F9196
:103AD0006F915F914F913F912F911F910F91FF90A7
:103AE000DF90CF90BF90AF900F900FBE0F901F90C0
:103AF0001895A0915202B091530222E02983FEE46E
:103B0000CF2EF2E0DF2E16E5A12E12E0B12E8FEFC0
:103B10009EE3F501F190619171918B015F01F110CC
:103B200019C0E2E0CE0ED11CF981F13081F4609130
:103B300075026A9F90016B9F300D11243595279572
:103B400035952795359527953595279595CF31E06E
:103B50003983DFCFF60120813181240F351F2617ED
:103B6000370710F0261B370B769567952617370712
:103B700018F4AF0DB11D8B01F601219331936F0144
:103B8000021B130B0817190708F0CECFC801CCCFC2
:103B9000FD01F695E79570E04E175F0720F07195EF
:103BA00061957109FD01A8E4B2E04D935D93E41BBA
:103BB000F50BE817F90708F4CF01E0917402E69FCE
:103BC000A001E79F500D11245595479555954795B0
:103BD0005595479555954795240F351F880F991F83
:103BE000880F991F813044E09407A8F00197882737
:103BF0009C7F9C5F909399008093980029373105B2
:103C00006CF428388FEF38075CF020581092BF0012
:103C10002093CF0051CF80E094E0ECCF28E7F5CFA0
:103C200028E8F3CF1092AD061092AC0688EE93E030
:103C3000A0E0B0E08093AE069093AF06A093B006EC
:103C4000B093B10680E392E09093AB068093AA060E
:103C50008FEF9FEF9093B7068093B606E9E1F7E008
:103C6000119287E0E733F807D9F710923707EAEFA8
:103C7000F6E0119287E0E831F807D9F710921807BB
:103C80000895CDB7DEB7A397DEBFCDBF789483E0AC
:103C900084BD83E085BD81E080936E00E1E8F0E0C3
:103CA00083E08083E0E881E08083E1E983E0808352
:103CB000E0E981E08083E1EC87E08083E3EC81E070
:103CC0008083E0EC82E08083E2EC81E08083EAE7BD
:103CD00087E08083806880831092A9021092990205
:103CE00010929B028091D70081608093D70080EA78
:103CF0008093D80089B5806189BD89B5826089BD0E
:103D000009B400FEFDCF81E090E00E944B1180914C
:103D1000D8008F7C80618093D8008091E000807F04
:103D20008093E0008091E1008E7E8093E1008DE041
:103D30008093E200559A209A81EC80937C0081EF79
:103D400085B987EE84B982E38BB982EF8AB9769A16
:103D50006E9880EF81BB10BA80E58CBD81E08DBD8F
:103D60000E945F115F9A0E945F115C98E1E6F4E1A6
:103D700085918EBD00000DB407FEFDCFEE36C1F774
:103D80005C9A81E88093640081E0809365000E94E2
:103D9000850F803811F42E98FFCF82E180930001C7
:103DA000809164008E7F8093640080917A008064AB
:103DB00080937A0080917A0086FDFCCF0091780094
:103DC000109179000E94E611AB01BC01C801B0E07E
:103DD000A0E0DC01992788278C019D01040F151FA5
:103DE000261F371FC901B80120916400216020936C
:103DF0006400611571058105910511F00E94832E03
:103E00000E94DE0D5E9AE4E1F0E087E69FEF60EF4E
:103E10007FEF25913591559145912851354909F408
:103E2000CA0180936B0290936C0225913591559154
:103E300045912851354909F4BA016093690270939C
:103E40006A0259988BEA0E944411599A0E940519F6
:103E500086E582BF82E48093C00081E08093C30046
:103E600090E49093C4001092BF009FE79093D1001C
:103E70001092900099E0909391009AE090937502CF
:103E8000909374023E9A3F9A80936D0280919102C2
:103E900080938D0286E180939102E5E0AE2EB12CF5
:103EA000FDE52F2E312CA0ED8A2E99249A94809135
:103EB0006E02882349F010926E0280E090E0892B18
:103EC000B1F30E940000E9CF9091700280916F02DF
:103ED000192F181B812F20910001121740F48F5FBA
:103EE000821758F781E083BF889513BEE6CF81E043
:103EF00080936E0290936F02E2E9F2E080819181FB
:103F00000196808391838091920280FD34C08091DC
:103F1000800280937F020E94850FF82E809380029A
:103F2000E0919102E83128F5F0E0E756F04E0C946C
:103F3000192FCA1FE11F5A208E201D21E11F662163
:103F400082216B23E61FC4231F2CE11FB91FB91F59
:103F5000E11F762C31231923B91FE11F8C2CB11FCF
:103F6000B71F86E180938D0287E1809391020E94C2
:103F700049160E94DE0D0E948D19809176028823D9
:103F800011F40C94E32D84E0809375028AE0809311
:103F9000740293CF80E190E0909384028093830237
:103FA000E2E3F1E0A2E1B1E001900D928A95E1F740
:103FB00080E1E2E4F1E0A2E0B1E001900D928A95A7
:103FC000E1F70E94980F0E943318D3CFE0908F0240
:103FD000F090900286E08E9D80018F9D100D11243F
:103FE000F801EC50FB4E849199E090938D02809300
:103FF0009102F801EB50FB4ED490D09286028231B0
:1040000009F03EC080E00E94CE19F801EA50FB4E54
:104010008491982F833008F090E090938702982F36
:10402000823008F492E0925090938802F801E950AF
:10403000FB4E81112AC010928C0210928B02E491E7
:10404000E0938902F801E850FB4EE49181E0E13011
:1040500009F080E080938A0281E0D11001C080E005
:1040600080938502F801E750FB4EE491E0938E02C5
:104070002FEFE21AF20AF0929002E0928F0279CFCB
:10408000853109F0C2CF86E0BECF1092890280FF51
:1040900007C0E491F0E0F0938C02E0938B02D2CF62
:1040A000E49180E890E08E1B910990938C028093BC
:1040B0008B02C8CF0E94980FC0908302D0908402D8
:1040C000C601880F991FB5010E94052F7195619552
:1040D0007109E12C00E02AE83EE040E090E080E059
:1040E0000E94F60F3FEFC31AD30AD0928402C09207
:1040F000830288E00E948D0F811106C043E6C4163A
:1041000046E0D40609F035CF88E197E00E943F15DC
:1041100082E080938D0289E00C94882C0E94E7163F
:1041200060E1E62E01E022E931E640E066E070E081
:1041300083E690E00E94F60F00917E02402F61E539
:1041400079E780E00E94D60F182F402F69E979E7C0
:1041500080E00E94D60F482F6DE279E780E00E9450
:10416000C80F2B01682E8091920290919302877064
:104170009927892B69F40F5F00937E02093441F47B
:1041800083E080938D0289E08093910210927E02F9
:1041900088E00E948D0F882391F080918F0290918A
:1041A000900201969093900280938F0280919102E9
:1041B00080938D0289E08093910210927E0250E1FB
:1041C000E52E00E0462D92016BE070E0812F110F8B
:1041D000990B0E94F60F10917E0201E0103118F445
:1041E00040E1E42E03E02EE83BE340E063E070E0D2
:1041F0008AE090E00E94F60F1B5030E1E32E01E0D0
:104200002EE736E440E062E170E01D3128F022ED57
:1042100035E440E064E170E085E290E00E94F60F52
:1042200020E1E22E01E02EEC3FE540E063E070E0AB
:1042300081E790E00E94F60F9CCE0E941217009139
:104240007E02402F61EE79E780E00E94D60F182FA2
:10425000402F69E17AE780E00E94D60F482F6DE297
:1042600079E780E00E94C80F2B01682E80919202AE
:104270009091930287709927892B59F40F5F0093CF
:104280007E02073331F484E080938D0289E08093CD
:10429000910288E00E948D0F882349F0809191025D
:1042A00080938D0289E08093910210927E0290E1CA
:1042B000E92E00E0462D92016BE070E0812F110F96
:1042C000990B0E94F60F0E94011753CE87E397E0E7
:1042D0000E943F1588E197E00E943F1510928202EC
:1042E00080E1E2E4F1E0A2E0B1E001900D928A9574
:1042F000E1F786E080938D0287E08093910210922F
:10430000010137CE0E94980F88E00E948D0FEAEAE3
:10431000F5E091E8882331F088E197E00E943F15AD
:1043200087E0F7CE915031F08191DF0111978061E4
:104330008C93F8CF0E94E7161091820280911807A3
:10434000811160C0173008F05DC0E12FF0E0E55545
:10435000FE4D0C94192FB2216F2280229122AB22A4
:104360009122C72289E28983BE016F5F7F4F8AEF66
:1043700096E00E947C1572E0E72EF12CE5E2CE2E4D
:10438000F8E2DF2EA6E27A2EB2E26B2E03E2502E86
:1043900004E287E2482ECB8ADA8679829E012D5E7E
:1043A0003F4FAE01465F5F4FBE016F5F7F4F8AEFA9
:1043B00096E00E948C156B8A5A8609839E012D5EB9
:1043C0003F4FAE01465F5F4FBE016F5F7F4F8AEF89
:1043D00096E00E948C150A874982AE01465F5F4FC6
:1043E000BE016F5F7F4F8AEF96E00E944215EA940C
:1043F000EF2809F070C085E08093050190920401D8
:10440000809203018091920290919302B5010E94E3
:10441000052F892B49F520910301309104018091EA
:104420001807815080931807E82FF0E0E650F94F05
:1044300090819093020190910501290F311D97FD04
:104440003A95309304012093030181110DC010921D
:1044500005011F5F10938202173030F087E08093D0
:104460008D0289E08093910270E1E72E00E02EE852
:104470003BE340E063E070E086E590E00E94F60FE9
:10448000809182028250843008F0C8C02EE736E462
:1044900040E062E170E086E490E00E94F60F50E1B7
:1044A000E52E00E022E931E640E066E070E080E1E0
:1044B00090E00E94F60F4091020160910801809106
:1044C00003010E946B142EEC3FE540E063E070E0D6
:1044D00090E080E0AFCEEE24E394F12C5CCF55E089
:1044E000E52EF12C00E20983BE016F5F7F4F8AEF5A
:1044F00096E00E947C1581E0E81AF108A1F782CFCE
:1045000049E0E42EF12C00E20983BE016F5F7F4F8A
:104510008AEF96E00E947C1591E0E91AF108A1F774
:1045200071CF00E20983BE016F5F7F4F8AEF96E093
:104530000E947C150983BE016F5F7F4F8AEF96E072
:104540000E947C150983BE016F5F7F4F8AEF96E062
:104550000E947C1557CF0BE20A873AE2F32EF982CC
:10456000AE01465F5F4FBE016F5F7F4F8AEF96E0FF
:104570000E944215FA860983AE01465F5F4FBE0175
:104580006F5F7F4F8AEF96E00E9442153BCFF2E0CB
:10459000EF2EF12CABE1CA2EBEE1DB2E0CE1702E2A
:1045A00088E1682E99E1592E0AE12DE1422ECB8A4D
:1045B000DA8679829E012D5E3F4FAE01465F5F4FE6
:1045C000BE016F5F7F4F8AEF96E00E948C156B8A69
:1045D0005A8609839E012D5E3F4FAE01465F5F4FB5
:1045E000BE016F5F7F4F8AEF96E00E948C150A87AD
:1045F0004982AE01465F5F4FBE016F5F7F4F8AEF1A
:1046000096E00E944215EA94EF2821F48BEF809304
:104610000501F8CEEE24E394F12CC9CF60E1E62E3B
:1046200000E022ED35E440E064E170E086E590E0F2
:1046300034CF87E397E00E943F1588E197E00E941E
:104640003F1582E180938D0281E18093910282E3A4
:10465000809312018CE890E0909304018093030111
:1046600088CC0E94980F81E180938D0289E080932D
:10467000910212E31093120186E38B8B87E38A8702
:104680008FE089839E012D5E3F4FAE01465F5F4FF5
:10469000BE016F5F7F4F89E197E00E948C1583E335
:1046A0008B8B84E38A8785E389839E012D5E3F4F50
:1046B000AE01465F5F4FBE016F5F7F4F89E197E0BC
:1046C0000E948C151983BE016F5F7F4F89E197E0CF
:1046D0000E947C154ECC88E080938D028AE0809306
:1046E00091028AE090E0909314018093130110925C
:1046F00017011092160190918902913071F4809106
:104700001B018A3A18F4865F80931B0180911B017C
:104710008A3A18F4865F80931B0120911B018091D7
:104720000B0187FD2CC080E2820F80931D01923027
:1047300041F58AEA90E030E1E2E0F1E0DF011D922C
:104740003A95E9F7909304018093030187E38093FE
:10475000080181E080930E0180930F0180E491E0D5
:10476000821B9109813F910514F080EF90E08093C6
:104770000B0180930D0181E080938102FACB80EAE6
:10478000D4CF8CE890E0D7CF0E94980F0E944E17AC
:104790009091850280913707992309F4C0C09091C8
:1047A00086029111BCC08111BAC08AE080938D024B
:1047B00089E08093910280918902813009F4B8C226
:1047C000823009F48AC489E0E2E5F1E0DE01539623
:1047D00001900D928A95E1F789E0EBE5F1E0DE01C9
:1047E0001A9601900D928A95E1F789E0E4E6F1E0EE
:1047F000DE01119601900D928A95E1F78091920267
:1048000090919302B5010E94052F892B09F069C090
:1048100010927D0210927C0280918502882339F0EB
:1048200080918602882319F0815080938602E0915E
:104830003707EE2309F43EC5E150E0933707F0E077
:10484000E75EF84F808180931201E0911807EE2314
:1048500009F433C5E150E0931807F0E0E650F94F52
:10486000808180930201D0908902DD20D1F1709087
:104870001201E0901301F090140110927B026090FD
:1048800002018BEF870D893070F4009103011091C4
:104890000401872D0E94B615262D4D2DB7010E94CB
:1048A000151680937D028BEF860D893078F4C090C9
:1048B0000301D0900401862D0E94B6158701272D93
:1048C00041E0B6010E94151680937C0210917D0292
:1048D00080917C028111F4C4112319F082E00E94BE
:1048E00066192091150110918802D0908702222329
:1048F00009F43AC580918B0290918C024091160187
:1049000050911701622F022E000C770B1111DCC49D
:10491000DD2009F403C5B2E0DB12DEC4F4C4D0909C
:1049200089024FE0642E47E2742EDD2081F0009171
:104930000301109104012091130130911401021B15
:10494000130B17FF03C0119501951109380181114F
:1049500032CF1092150110911201F3FE7BC0183076
:1049600048F5153008F065C0112309F43FC0123036
:1049700009F021CFF7FC04C08F2D807509F41BCFFF
:1049800080911E018F5F80931E01853078F083E057
:1049900089831A86AE014F5F5F4FBE01665F7F4F0E
:1049A00089E197E00E94421510921E01F6FE4BC06D
:1049B00085E022C01E3009F0FECE10911F01F6FEE8
:1049C000A1C089E0111188E089838EE08A87AE0159
:1049D0004F5F5F4FBE01665F7F4F89E197E00E94A6
:1049E000421581E0182710931F01E5CEF7FC08C09F
:1049F0008F2D807529F481E0898382E08A8738C110
:104A0000F6FE07C081E0898384E08A8785E08B8B8E
:104A100016C1F7FE06C081E0898384E08A8787E0BB
:104A2000F6CFF4FEC8CE81E0898384E08A8786E0F1
:104A3000EECF82E08983BE016F5F7F4F89E197E00F
:104A40000E947C15B8CE87E0F7FCD6CF86E0F4FE56
:104A5000B2CED2CF1230B9F020F08BEF810F83307D
:104A600010F1F2FE5FC01E3098F5183008F048C013
:104A70001111A1CEF7FC34C08F2D807589F581E02E
:104A800089838EE0BBCF10921E0183E089831A8652
:104A9000AE014F5F5F4FBE01665F7F4F89E197E0D8
:104AA0000E944215DECF10921E0182E0898383E0CE
:104AB0008A871B8A9E012F5F3F4FAE01465F5F4F83
:104AC000BE016D5E7F4F89E197E00E948C15C9CFD2
:104AD0001E3009F472CF1F3009F06DCE81E0C6C0E0
:104AE000F6FE06C081E089838EE08A8788E08FCF5A
:104AF000F7FE61CE81E089838EE08A878AE087CFE6
:104B00008EE098CFF7FE06C08BE0112309F45CCF4E
:104B10008AE05ACFF4FE65CF8DE0112309F454CF1B
:104B20008CE052CF183030F01E3080F183E01E3020
:104B300009F49CC01F3009F4CAC0D8F511113BCE4E
:104B400081E0F7FCF2C0F6FE9EC0B1E56B16710481
:104B500010F4D11062C08EEF8093150182E1898339
:104B600081E08A871B8A9E012F5F3F4FAE01465F1F
:104B70005F4FBE016D5E7F4F89E197E00E948C150B
:104B800083E0898380E18A8781E141CF8EE0898358
:104B900083E08A871B8A9E012F5F3F4FAE01465FED
:104BA0005F4FBE016D5E7F4F89E197E00E948C15DB
:104BB000C1CF193119F01C3109F0FDCDF6FEB1C09D
:104BC00025E66216710408F4ACC0109120018EEF46
:104BD0008093150111119FC08DE1898388E18A8737
:104BE00089E18B8B9E012F5F3F4FAE01465F5F4F88
:104BF000BE016D5E7F4F89E197E00E948C158AE1CE
:104C00008983BE016F5F7F4F89E197E00E947C1529
:104C100081E0182710932001CECDE8E36E167104D1
:104C200010F08FEF99CFF4E26F167104B0F08FEFB0
:104C30008093150180E1898381E18A871B8A9E0127
:104C40002F5F3F4FAE01465F5F4FBE016D5E7F4FEE
:104C500089E197E00E948C15AECD0AE160167104DF
:104C600008F4A9CD8FEF8093150180E189831A861E
:104C7000AE014F5F5F4FBE01665F7F4F89E197E0F6
:104C80000E94421598CDF5FE96CD80911601909127
:104C900017010D970CF48FCD81E08093150183E00F
:104CA000898386E18A871B8A9E012F5F3F4FAE0171
:104CB000465F5F4FBE016D5E7F4F89E197E00E94C6
:104CC0008C1583E1898384E18A8785E1A0CEF4FC99
:104CD00005CFF6FE70CD15E66116710408F46BCDB4
:104CE00081E0809320018EEF809315018BE1898311
:104CF0008EE18A878CE18B8B9E012F5F3F4FAE0147
:104D0000465F5F4FBE016D5E7F4F89E197E00E9475
:104D10008C1587E18FCE8BE189838EE18A878CE1C8
:104D200060CF8EEF809315018FE189838FE066CE8F
:104D3000809118078111A9C0C0900301D09004018F
:104D4000209113013091140110920501809102010C
:104D5000823009F40EC18E3009F456C1811195C01C
:104D6000C21AD30AD7FE03C0D194C194D10880914E
:104D700012018F3009F46EC020F08751893008F499
:104D800089C052E3C516D1040CF088C080917B0223
:104D9000F12C81110CC060918E0270E06B5F7F4F2F
:104DA000072E000C880B990B0E94FD19F62E62E06D
:104DB00070E080E090E00E94FD192B013C0164E06E
:104DC00070E080E090E00E94FD196F8F78A389A3C6
:104DD0009AA385E08F1508F075C080917902811142
:104DE0000BC06BE070E080E090E00E94FD19672B43
:104DF000682B692B09F049C01EE1C116D1040CF0E3
:104E0000B2C083E0898386E18A871B8A9E012F5F77
:104E10003F4FAE01465F5F4FBE016D5E7F4F8AEF31
:104E200096E00E948C1583E1898384E18A8785E17D
:104E30008B8B9E012F5F3F4FAE01465F5F4FBE01E0
:104E40006D5E7F4F8AEF96E00E948C1581E0809323
:104E500005011BC031E1C316D10404F566E082E010
:104E60000E94D01581E0898384E08A8787E08B8B5C
:104E70009E012F5F3F4FAE01465F5F4FBE016D5EEB
:104E80007F4F8AEF96E00E948C1510927B02109261
:104E9000790299CC4FE4C416D10404F380E18983EC
:104EA00082E18A871B8A9E012F5F3F4FAE01465FDA
:104EB0005F4FBE016D5E7F4F8AEF96E00E948C15BA
:104EC0008FEFC5CF00911301109114016091030180
:104ED000709104012091120141E08F2D0E9415165E
:104EE000811109C00F8D18A129A13AA1012B022B14
:104EF000032B09F072CFC301B2016A5F7F4F8F4F5E
:104F00009F4F8F2D0E94D01523E0F21631F12F15FF
:104F100068F031E0F316B1F042E0F41609F4A2CFE4
:104F200081E0898384E08A8785E0A1CF54E0F5168B
:104F300071F085E0F812F4CF81E089838EE08A87F2
:104F40008CE095CFF98284E08A8786E090CF81E07B
:104F500089838EE08A878AE08ACF81E089838EE028
:104F60008A8788E084CF97E2C916D1040CF48DCFEC
:104F700095CF80917B02F12C811107C063E070E036
:104F800080E090E00E94FD19F62E62E070E080E083
:104F900090E00E94FD192B013C010091130110913A
:104FA000140160910301709104012091120141E00C
:104FB0008F2D0E941516882309F480C0C301B20109
:104FC0006A5F7F4F8F4F9F4F8F2D0E94D015A1E0BA
:104FD000FA16C1F0FA1688F0B2E0FB1256CF87E05D
:104FE0008983FA86AE014F5F5F4FBE01665F7F4FD8
:104FF0008AEF96E00E94421548CF85E0898382E0DF
:105000008A87F0CF86E0FACF80917B0223E0722E70
:10501000811109C063E070E080E090E00E94FD191A
:1050200033E0732E760E62E070E080E090E00E9444
:10503000FD196B017C010091130110911401609125
:105040000301709104012091120141E0872D0E941B
:105050001516882399F1C701B6016A5F7F4F8F4FFC
:105060009F4F872D0E94D01510910F01E4E07E160E
:1050700059F0F5E07F16E9F003E0701215C089E001
:10508000112329F088E003C08BE011118AE08983A5
:105090008EE08A87AE014F5F5F4FBE01665F7F4F34
:1050A0008AEF96E00E94421581E0182710930F01C5
:1050B000ECCE8DE0112359F38CE0E9CF61E070E094
:1050C00080E090E00E94FD19672B682B692B09F0A6
:1050D000DCCE83E089831A8685CF80911807811101
:1050E00072CB109181021630B8F4133008F095C0DD
:1050F000113091F1123009F453C081E080938102A4
:105100008091370781115FCB8091910280938D024E
:1051100089E08093910257CB163079F705E010E0D3
:105120008CE3E82E9DE3F92EE982BE016F5F7F4F8D
:105130008AEF96E00E947C15F982BE016F5F7F4F77
:105140008AEF96E00E947C150150110969F784E00E
:105150008093050187E021C063E070E080E090E08B
:105160000E94FD1962597B4EFB0164916093080116
:1051700088E38983BE016F5F7F4F8AEF96E00E94CC
:105180007C158CEF8093050186E990E090930401F3
:1051900080930301809181028F5F8093810213CB02
:1051A0008091030190910401209113013091140129
:1051B000821B930B97FF03C09195819591092091D4
:1051C00012012F3031F1203221F1223011F028E28A
:1051D00007C0209108012B31D1F32832C1F328E117
:1051E00028171906C4F41091780288E3111101C040
:1051F00089E38983BE016F5F7F4F8AEF96E00E944B
:105200007C1581E01827109378028CEF80930501BC
:10521000DACA2EE1E5CF83E0C0CF2091080180916A
:1052200012018F3079F0803269F08230D9F52B315C
:10523000C9F12832B9F185E090E0233129F090E0FE
:1052400080E002C089E090E0409113015091140188
:10525000840F951F90930401809303012B3119F063
:105260008BE3283209F48AE38983BE016F5F7F4FA5
:105270008AEF96E00E947C15143071F480911B0136
:10528000909108019B3111F0983279F48E3108F435
:105290008EE18E5180931B01109205011F5F1093C8
:1052A000810291CA84E190E0CFCF823308F482E397
:1052B0008253F0CF10921501C8CA10920501D3CACB
:1052C00081E00E94661908CB1230D1F48136910535
:1052D0002CF5A2E0DA1619F001E0D016E1F0809189
:1052E000130190911401861B970B909314018093E6
:1052F0001301461B570B509317014093160134C0FE
:10530000F2E0DF1206C08136910544F4113019F045
:10531000E6CF113009F78E3191050CF730917A0202
:10532000230F20937A02461B570B5093170140938B
:1053300016014091030150910401460F571F5093ED
:10534000040140930301860F971F90938C02809372
:105350008B02203D14F410927A0280917A02181682
:105360001CF4805380937A02123009F0C0C000E12F
:10537000E02E00E026EE3AE540E06EEF7FEF809110
:105380008B0290918C020E94F60F22E0D2120FC085
:1053900080918B0290918C02A0E1EA2E01E022E93B
:1053A00031E640E066E070E002960E94F60F209140
:1053B0000501222361F08091030190910401820F85
:1053C000911D27FD9A9590930401809303013091DC
:1053D00012013F8F7090180160901301432F672DC9
:1053E000862D0E949413409189024BA34423A1F07F
:1053F0008091030190910401803891056CF4209113
:105400008F02309190022132310531F0409102013A
:10541000609108010E946B1480918D02803169F4C3
:1054200080918F0290919002819739F041E36091D1
:105430000801809103010E946B14123009F068C0CA
:1054400080918B0290918C02F0E1EF2E00E02AE037
:105450003DE540E06EEF7FEF41960E94F60F52E08F
:10546000D5120FC080918B0290918C0270E1E72ED3
:1054700001E02EEC3FE540E063E070E040960E94E2
:10548000F60FE0907C02F0907D02E11052C0F11026
:105490008FC080911C018F5F80931C01863978F04A
:1054A00080911B0190E020911D0130E003962817A8
:1054B00039070CF4C90180931B0110921C018091E3
:1054C0000C018F5F80930C01863908F4D1C0809164
:1054D0000B0190E020910D0130E003962817390769
:1054E0000CF4C90180930B0110920C01BCC0113067
:1054F00009F04BCF80918B0290918C02B0E1EB2EA2
:1055000001E026EE3AE540E06EEF7FEF40963BCFBC
:10551000113009F0A4CF80918B0290918C02E0E1D0
:10552000EE2E01E02AE03DE540E06EEF7FEF0697CA
:1055300094CF809102018550990BEAE0F0E0EC0FE6
:10554000FD1FE80FF91FC090030120812C0D2138A9
:1055500008F020E0A1E0B0E0AC0FBD1F8A0F9B1F58
:1055600040900801FC018081480E512CC22ED12CA4
:1055700000E020E048EB54E1B201C6010E94431272
:1055800021E041E754E1B201C6010E94431280913B
:105590001B01082F0E19110B8E190A3011050CF47E
:1055A00080E080931B0110921C01FF2009F460C071
:1055B0002F8D2550330BC901E1E0F0E0EC0FFD1F0A
:1055C000E20FF31FC0807C0CC72CD12C43E150E0CC
:1055D0004C0F5D1F840F951FDC018C91680E712CA0
:1055E00000E020E048EB54E1B601C3010E94431201
:1055F00021E041E754E1B601C3010E9443121BA11F
:10560000113009F018C180910B01482F4F19550B2B
:105610008F194A3051050CF480E080930B011092F1
:105620000C018091180781111CC062E070E080E0DD
:1056300090E00E94FD1921E0672B682B692B09F08F
:1056400020E020937B0263E070E080E090E00E9425
:10565000FD1921E0672B682B692B09F020E02093CE
:10566000790280910B01811103C081E00E94CE1963
:1056700080912101811153C080911B0181114FC084
:1056800087E397E00E943F158FE28C8F80E38D8F38
:1056900081E38E8F9E01245E3F4FAE01435E5F4FDC
:1056A000BE01625E7F4F89E197E00E948C158CE21B
:1056B0008C8F8DE28D8F8EE28E8F9E01245E3F4F08
:1056C000AE01435E5F4FBE01625E7F4F89E197E0AE
:1056D0000E948C1511E01093210185E00E94CE19E3
:1056E000809181028230C8F41C8FBE01645E7F4FBE
:1056F0008AEF96E00E94611504E110E06FE0F62E5B
:10570000FC8EBE01645E7F4F8AEF96E00E946115B9
:1057100001501109A9F7109205011092150180910D
:10572000110181114CC080910B01811148C088E1A9
:1057300097E00E943F158FE28C8F80E38D8F81E38D
:105740008E8F9E01245E3F4FAE01435E5F4FBE01D0
:10575000625E7F4F8AEF96E00E948C158CE28C8F00
:105760008DE28D8F8EE28E8F9E01245E3F4FAE01C3
:10577000435E5F4FBE01625E7F4F8AEF96E00E94FC
:105780008C1581E0809311018C8FBE01645E7F4F88
:1057900089E197E00E9461150FE010E05FE0F52ECF
:1057A000FC8EBE01645E7F4F89E197E00E94611527
:1057B00001501109A9F7109215011092050180916D
:1057C0008902882301F19091370791111CC09091B3
:1057D0001807911118C090912101992339F09091E7
:1057E000910290938D029FE090939102813059F441
:1057F00080911101882339F08091910280938D026C
:1058000089E08093910280918D02803111F00C9497
:10581000B91F80911301909114018138910514F4FE
:105820000C94B91F8091370781110C94B91F809196
:1058300091020C94892086E08093810219CF87E33E
:1058400097E00E943F1588E197E00E943F1502E033
:1058500010E0ABE1CA2EBEE1DB2E8CE1E82E98E130
:10586000792E29E1622E3AE1F32E4DE1542EC982C0
:10587000DA86EB8A9E012F5F3F4FAE01465F5F4F96
:10588000BE016D5E7F4F8AEF96E00E948C15798293
:105890006A86FB8A9E012F5F3F4FAE01465F5F4FD6
:1058A000BE016D5E7F4F8AEF96E00E948C15F982F3
:1058B0005A86AE014F5F5F4FBE01665F7F4F8AEF32
:1058C00096E00E9442150130110569F482E0809350
:1058D00015018BE080938D028CE08093910280E330
:1058E00090E00C942C2301E010E0C1CF87E397E017
:1058F0000E943F1588E197E00E943F1582EE9FEFDE
:10590000909317018093160180E180938D028AE0C5
:10591000809391020C94B91F0E94980F88E00E9416
:105920008D0F882339F088E197E00E943F1585E1CB
:105930000C9489200E94121780911807811114C0BD
:1059400080913707811110C0809177028F5F80931B
:105950007702833009F408C108F06AC0813009F485
:1059600084C0823009F4EDC080919202909193023C
:10597000B5010E94052F892BB1F5E0911807EE23A0
:10598000B9F0E150E0931807F0E0E650F94F80815C
:1059900080930201209105018091030190910401FF
:1059A000820F911D27FD9A95909304018093030126
:1059B000E0913707EE23B9F0809113019091140123
:1059C000E150E0933707F0E0E75EF84F2081209345
:1059D000120120911501820F911D27FD9A95909338
:1059E000140180931301409112016091180180917C
:1059F00013010E94941380918F02909190028197DD
:105A000041F04091020160910801809103010E94E0
:105A10006B140E94011780917702853011F00C946D
:105A2000B91F80911807882309F481CF0C94B91FFE
:105A3000843009F4ADC0853009F096CF309204016E
:105A4000209203018FE08093080102E110E081E4DD
:105A5000F82EF982BE016F5F7F4F8AEF96E00E94B9
:105A60007C1501501109A9F77FCF03E010E03DE15B
:105A7000C32E48E1D42E59E1E52E6AE1F62E7BE1F2
:105A8000772EEEE16E2EFCE15F2ECB8ADA86E9827C
:105A90009E012D5E3F4FAE01465F5F4FBE016F5FBF
:105AA0007F4F89E197E00E948C15F982BE016F5FFC
:105AB0007F4F89E197E00E947C157B8A6A86598234
:105AC0009E012D5E3F4FAE01465F5F4FBE016F5F8F
:105AD0007F4F89E197E00E948C15F982BE016F5FCC
